{
  "_format": "hh-sol-artifact-1",
  "contractName": "NFTMarket",
  "sourceName": "contracts/NFTMarket.sol",
  "abi": [
    {
      "inputs": [],
      "stateMutability": "nonpayable",
      "type": "constructor"
    },
    {
      "anonymous": false,
      "inputs": [
        {
          "indexed": true,
          "internalType": "address",
          "name": "owner",
          "type": "address"
        },
        {
          "indexed": true,
          "internalType": "address",
          "name": "approved",
          "type": "address"
        },
        {
          "indexed": true,
          "internalType": "uint256",
          "name": "tokenId",
          "type": "uint256"
        }
      ],
      "name": "Approval",
      "type": "event"
    },
    {
      "anonymous": false,
      "inputs": [
        {
          "indexed": true,
          "internalType": "address",
          "name": "owner",
          "type": "address"
        },
        {
          "indexed": true,
          "internalType": "address",
          "name": "operator",
          "type": "address"
        },
        {
          "indexed": false,
          "internalType": "bool",
          "name": "approved",
          "type": "bool"
        }
      ],
      "name": "ApprovalForAll",
      "type": "event"
    },
    {
      "anonymous": false,
      "inputs": [
        {
          "indexed": false,
          "internalType": "uint256",
          "name": "tokenID",
          "type": "uint256"
        },
        {
          "indexed": false,
          "internalType": "address",
          "name": "from",
          "type": "address"
        },
        {
          "indexed": false,
          "internalType": "address",
          "name": "to",
          "type": "address"
        },
        {
          "indexed": false,
          "internalType": "string",
          "name": "tokenURI",
          "type": "string"
        },
        {
          "indexed": false,
          "internalType": "uint256",
          "name": "price",
          "type": "uint256"
        }
      ],
      "name": "NFTTransfer",
      "type": "event"
    },
    {
      "anonymous": false,
      "inputs": [
        {
          "indexed": true,
          "internalType": "address",
          "name": "previousOwner",
          "type": "address"
        },
        {
          "indexed": true,
          "internalType": "address",
          "name": "newOwner",
          "type": "address"
        }
      ],
      "name": "OwnershipTransferred",
      "type": "event"
    },
    {
      "anonymous": false,
      "inputs": [
        {
          "indexed": true,
          "internalType": "address",
          "name": "from",
          "type": "address"
        },
        {
          "indexed": true,
          "internalType": "address",
          "name": "to",
          "type": "address"
        },
        {
          "indexed": true,
          "internalType": "uint256",
          "name": "tokenId",
          "type": "uint256"
        }
      ],
      "name": "Transfer",
      "type": "event"
    },
    {
      "inputs": [
        {
          "internalType": "address",
          "name": "to",
          "type": "address"
        },
        {
          "internalType": "uint256",
          "name": "tokenId",
          "type": "uint256"
        }
      ],
      "name": "approve",
      "outputs": [],
      "stateMutability": "nonpayable",
      "type": "function"
    },
    {
      "inputs": [
        {
          "internalType": "address",
          "name": "owner",
          "type": "address"
        }
      ],
      "name": "balanceOf",
      "outputs": [
        {
          "internalType": "uint256",
          "name": "",
          "type": "uint256"
        }
      ],
      "stateMutability": "view",
      "type": "function"
    },
    {
      "inputs": [
        {
          "internalType": "uint256",
          "name": "tokenID",
          "type": "uint256"
        }
      ],
      "name": "buyNFT",
      "outputs": [],
      "stateMutability": "payable",
      "type": "function"
    },
    {
      "inputs": [
        {
          "internalType": "uint256",
          "name": "tokenID",
          "type": "uint256"
        }
      ],
      "name": "cancelListing",
      "outputs": [],
      "stateMutability": "nonpayable",
      "type": "function"
    },
    {
      "inputs": [
        {
          "internalType": "string",
          "name": "tokenURI",
          "type": "string"
        }
      ],
      "name": "createNFT",
      "outputs": [],
      "stateMutability": "nonpayable",
      "type": "function"
    },
    {
      "inputs": [
        {
          "internalType": "uint256",
          "name": "tokenId",
          "type": "uint256"
        }
      ],
      "name": "getApproved",
      "outputs": [
        {
          "internalType": "address",
          "name": "",
          "type": "address"
        }
      ],
      "stateMutability": "view",
      "type": "function"
    },
    {
      "inputs": [
        {
          "internalType": "address",
          "name": "owner",
          "type": "address"
        },
        {
          "internalType": "address",
          "name": "operator",
          "type": "address"
        }
      ],
      "name": "isApprovedForAll",
      "outputs": [
        {
          "internalType": "bool",
          "name": "",
          "type": "bool"
        }
      ],
      "stateMutability": "view",
      "type": "function"
    },
    {
      "inputs": [
        {
          "internalType": "uint256",
          "name": "tokenID",
          "type": "uint256"
        },
        {
          "internalType": "uint256",
          "name": "price",
          "type": "uint256"
        }
      ],
      "name": "listNFT",
      "outputs": [],
      "stateMutability": "nonpayable",
      "type": "function"
    },
    {
      "inputs": [],
      "name": "name",
      "outputs": [
        {
          "internalType": "string",
          "name": "",
          "type": "string"
        }
      ],
      "stateMutability": "view",
      "type": "function"
    },
    {
      "inputs": [],
      "name": "owner",
      "outputs": [
        {
          "internalType": "address",
          "name": "",
          "type": "address"
        }
      ],
      "stateMutability": "view",
      "type": "function"
    },
    {
      "inputs": [
        {
          "internalType": "uint256",
          "name": "tokenId",
          "type": "uint256"
        }
      ],
      "name": "ownerOf",
      "outputs": [
        {
          "internalType": "address",
          "name": "",
          "type": "address"
        }
      ],
      "stateMutability": "view",
      "type": "function"
    },
    {
      "inputs": [],
      "name": "renounceOwnership",
      "outputs": [],
      "stateMutability": "nonpayable",
      "type": "function"
    },
    {
      "inputs": [
        {
          "internalType": "address",
          "name": "from",
          "type": "address"
        },
        {
          "internalType": "address",
          "name": "to",
          "type": "address"
        },
        {
          "internalType": "uint256",
          "name": "tokenId",
          "type": "uint256"
        }
      ],
      "name": "safeTransferFrom",
      "outputs": [],
      "stateMutability": "nonpayable",
      "type": "function"
    },
    {
      "inputs": [
        {
          "internalType": "address",
          "name": "from",
          "type": "address"
        },
        {
          "internalType": "address",
          "name": "to",
          "type": "address"
        },
        {
          "internalType": "uint256",
          "name": "tokenId",
          "type": "uint256"
        },
        {
          "internalType": "bytes",
          "name": "data",
          "type": "bytes"
        }
      ],
      "name": "safeTransferFrom",
      "outputs": [],
      "stateMutability": "nonpayable",
      "type": "function"
    },
    {
      "inputs": [
        {
          "internalType": "address",
          "name": "operator",
          "type": "address"
        },
        {
          "internalType": "bool",
          "name": "approved",
          "type": "bool"
        }
      ],
      "name": "setApprovalForAll",
      "outputs": [],
      "stateMutability": "nonpayable",
      "type": "function"
    },
    {
      "inputs": [
        {
          "internalType": "bytes4",
          "name": "interfaceId",
          "type": "bytes4"
        }
      ],
      "name": "supportsInterface",
      "outputs": [
        {
          "internalType": "bool",
          "name": "",
          "type": "bool"
        }
      ],
      "stateMutability": "view",
      "type": "function"
    },
    {
      "inputs": [],
      "name": "symbol",
      "outputs": [
        {
          "internalType": "string",
          "name": "",
          "type": "string"
        }
      ],
      "stateMutability": "view",
      "type": "function"
    },
    {
      "inputs": [
        {
          "internalType": "uint256",
          "name": "tokenId",
          "type": "uint256"
        }
      ],
      "name": "tokenURI",
      "outputs": [
        {
          "internalType": "string",
          "name": "",
          "type": "string"
        }
      ],
      "stateMutability": "view",
      "type": "function"
    },
    {
      "inputs": [
        {
          "internalType": "address",
          "name": "from",
          "type": "address"
        },
        {
          "internalType": "address",
          "name": "to",
          "type": "address"
        },
        {
          "internalType": "uint256",
          "name": "tokenId",
          "type": "uint256"
        }
      ],
      "name": "transferFrom",
      "outputs": [],
      "stateMutability": "nonpayable",
      "type": "function"
    },
    {
      "inputs": [
        {
          "internalType": "address",
          "name": "newOwner",
          "type": "address"
        }
      ],
      "name": "transferOwnership",
      "outputs": [],
      "stateMutability": "nonpayable",
      "type": "function"
    },
    {
      "inputs": [],
      "name": "withdrawFunds",
      "outputs": [],
      "stateMutability": "nonpayable",
      "type": "function"
    }
  ],
  "bytecode": "0x60806040523480156200001157600080fd5b506040518060400160405280600c81526020017f4162646f752773204e46547300000000000000000000000000000000000000008152506040518060400160405280600481526020017f414e465400000000000000000000000000000000000000000000000000000000815250816000908051906020019062000096929190620001a6565b508060019080519060200190620000af929190620001a6565b505050620000d2620000c6620000d860201b60201c565b620000e060201b60201c565b620002bb565b600033905090565b6000600760009054906101000a900473ffffffffffffffffffffffffffffffffffffffff16905081600760006101000a81548173ffffffffffffffffffffffffffffffffffffffff021916908373ffffffffffffffffffffffffffffffffffffffff1602179055508173ffffffffffffffffffffffffffffffffffffffff168173ffffffffffffffffffffffffffffffffffffffff167f8be0079c531659141344cd1fd0a4f28419497f9722a3daafe3b4186f6b6457e060405160405180910390a35050565b828054620001b49062000285565b90600052602060002090601f016020900481019282620001d8576000855562000224565b82601f10620001f357805160ff191683800117855562000224565b8280016001018555821562000224579182015b828111156200022357825182559160200191906001019062000206565b5b50905062000233919062000237565b5090565b5b808211156200025257600081600090555060010162000238565b5090565b7f4e487b7100000000000000000000000000000000000000000000000000000000600052602260045260246000fd5b600060028204905060018216806200029e57607f821691505b60208210811415620002b557620002b462000256565b5b50919050565b6139db80620002cb6000396000f3fe60806040526004361061012a5760003560e01c806370a08231116100ab578063a22cb4651161006f578063a22cb465146103bb578063b88d4fde146103e4578063c87b56dd1461040d578063da2ed03e1461044a578063e985e9c514610473578063f2fde38b146104b05761012a565b806370a08231146102e8578063715018a6146103255780638da5cb5b1461033c57806394383f141461036757806395d89b41146103905761012a565b806324600fc3116100f257806324600fc314610226578063305a67a81461023d57806342842e0e1461026657806351ed82881461028f5780636352211e146102ab5761012a565b806301ffc9a71461012f57806306fdde031461016c578063081812fc14610197578063095ea7b3146101d457806323b872dd146101fd575b600080fd5b34801561013b57600080fd5b5061015660048036038101906101519190612553565b6104d9565b604051610163919061259b565b60405180910390f35b34801561017857600080fd5b506101816105bb565b60405161018e919061264f565b60405180910390f35b3480156101a357600080fd5b506101be60048036038101906101b991906126a7565b61064d565b6040516101cb9190612715565b60405180910390f35b3480156101e057600080fd5b506101fb60048036038101906101f6919061275c565b610693565b005b34801561020957600080fd5b50610224600480360381019061021f919061279c565b6107ab565b005b34801561023257600080fd5b5061023b61080b565b005b34801561024957600080fd5b50610264600480360381019061025f91906126a7565b6108a5565b005b34801561027257600080fd5b5061028d6004803603810190610288919061279c565b610a9a565b005b6102a960048036038101906102a491906126a7565b610aba565b005b3480156102b757600080fd5b506102d260048036038101906102cd91906126a7565b610cf8565b6040516102df9190612715565b60405180910390f35b3480156102f457600080fd5b5061030f600480360381019061030a91906127ef565b610d7f565b60405161031c919061282b565b60405180910390f35b34801561033157600080fd5b5061033a610e37565b005b34801561034857600080fd5b50610351610e4b565b60405161035e9190612715565b60405180910390f35b34801561037357600080fd5b5061038e60048036038101906103899190612846565b610e75565b005b34801561039c57600080fd5b506103a5610f96565b6040516103b2919061264f565b60405180910390f35b3480156103c757600080fd5b506103e260048036038101906103dd91906128b2565b611028565b005b3480156103f057600080fd5b5061040b60048036038101906104069190612a27565b61103e565b005b34801561041957600080fd5b50610434600480360381019061042f91906126a7565b6110a0565b604051610441919061264f565b60405180910390f35b34801561045657600080fd5b50610471600480360381019061046c9190612b0a565b6111b3565b005b34801561047f57600080fd5b5061049a60048036038101906104959190612b57565b61126b565b6040516104a7919061259b565b60405180910390f35b3480156104bc57600080fd5b506104d760048036038101906104d291906127ef565b6112ff565b005b60007f80ac58cd000000000000000000000000000000000000000000000000000000007bffffffffffffffffffffffffffffffffffffffffffffffffffffffff1916827bffffffffffffffffffffffffffffffffffffffffffffffffffffffff191614806105a457507f5b5e139f000000000000000000000000000000000000000000000000000000007bffffffffffffffffffffffffffffffffffffffffffffffffffffffff1916827bffffffffffffffffffffffffffffffffffffffffffffffffffffffff1916145b806105b457506105b382611383565b5b9050919050565b6060600080546105ca90612bc6565b80601f01602080910402602001604051908101604052809291908181526020018280546105f690612bc6565b80156106435780601f1061061857610100808354040283529160200191610643565b820191906000526020600020905b81548152906001019060200180831161062657829003601f168201915b5050505050905090565b6000610658826113ed565b6004600083815260200190815260200160002060009054906101000a900473ffffffffffffffffffffffffffffffffffffffff169050919050565b600061069e82610cf8565b90508073ffffffffffffffffffffffffffffffffffffffff168373ffffffffffffffffffffffffffffffffffffffff16141561070f576040517f08c379a000000000000000000000000000000000000000000000000000000000815260040161070690612c6a565b60405180910390fd5b8073ffffffffffffffffffffffffffffffffffffffff1661072e611438565b73ffffffffffffffffffffffffffffffffffffffff16148061075d575061075c81610757611438565b61126b565b5b61079c576040517f08c379a000000000000000000000000000000000000000000000000000000000815260040161079390612cfc565b60405180910390fd5b6107a68383611440565b505050565b6107bc6107b6611438565b826114f9565b6107fb576040517f08c379a00000000000000000000000000000000000000000000000000000000081526004016107f290612d8e565b60405180910390fd5b61080683838361158e565b505050565b610813611888565b60004790506000811161085b576040517f08c379a000000000000000000000000000000000000000000000000000000000815260040161085290612dfa565b60405180910390fd5b3373ffffffffffffffffffffffffffffffffffffffff166108fc829081150290604051600060405180830381858888f193505050501580156108a1573d6000803e3d6000fd5b5050565b600060096000838152602001908152602001600020604051806040016040529081600082015481526020016001820160009054906101000a900473ffffffffffffffffffffffffffffffffffffffff1673ffffffffffffffffffffffffffffffffffffffff1673ffffffffffffffffffffffffffffffffffffffff16815250509050600081600001511161096e576040517f08c379a000000000000000000000000000000000000000000000000000000000815260040161096590612e8c565b60405180910390fd5b3373ffffffffffffffffffffffffffffffffffffffff16816020015173ffffffffffffffffffffffffffffffffffffffff16146109e0576040517f08c379a00000000000000000000000000000000000000000000000000000000081526004016109d790612ef8565b60405180910390fd5b3073ffffffffffffffffffffffffffffffffffffffff166323b872dd3033856040518463ffffffff1660e01b8152600401610a1d93929190612f18565b600060405180830381600087803b158015610a3757600080fd5b505af1158015610a4b573d6000803e3d6000fd5b50505050610a5882611906565b7f705332a8918666802fc1504f63ff1f002a5f6cedd30d59ad7ae0b5281aeb8dca8230336000604051610a8e9493929190612fba565b60405180910390a15050565b610ab58383836040518060200160405280600081525061103e565b505050565b600060096000838152602001908152602001600020604051806040016040529081600082015481526020016001820160009054906101000a900473ffffffffffffffffffffffffffffffffffffffff1673ffffffffffffffffffffffffffffffffffffffff1673ffffffffffffffffffffffffffffffffffffffff168152505090506000816000015111610b83576040517f08c379a0000000000000000000000000000000000000000000000000000000008152600401610b7a90612e8c565b60405180910390fd5b80600001513414610bc9576040517f08c379a0000000000000000000000000000000000000000000000000000000008152600401610bc09061305e565b60405180910390fd5b3073ffffffffffffffffffffffffffffffffffffffff166323b872dd3033856040518463ffffffff1660e01b8152600401610c0693929190612f18565b600060405180830381600087803b158015610c2057600080fd5b505af1158015610c34573d6000803e3d6000fd5b50505050610c4182611906565b806020015173ffffffffffffffffffffffffffffffffffffffff166108fc610c8a6064610c7c605f866000015161197b90919063ffffffff16565b61199190919063ffffffff16565b9081150290604051600060405180830381858888f19350505050158015610cb5573d6000803e3d6000fd5b507f705332a8918666802fc1504f63ff1f002a5f6cedd30d59ad7ae0b5281aeb8dca8230336000604051610cec9493929190612fba565b60405180910390a15050565b600080610d04836119a7565b9050600073ffffffffffffffffffffffffffffffffffffffff168173ffffffffffffffffffffffffffffffffffffffff161415610d76576040517f08c379a0000000000000000000000000000000000000000000000000000000008152600401610d6d906130ca565b60405180910390fd5b80915050919050565b60008073ffffffffffffffffffffffffffffffffffffffff168273ffffffffffffffffffffffffffffffffffffffff161415610df0576040517f08c379a0000000000000000000000000000000000000000000000000000000008152600401610de79061315c565b60405180910390fd5b600360008373ffffffffffffffffffffffffffffffffffffffff1673ffffffffffffffffffffffffffffffffffffffff168152602001908152602001600020549050919050565b610e3f611888565b610e4960006119e4565b565b6000600760009054906101000a900473ffffffffffffffffffffffffffffffffffffffff16905090565b60008111610eb8576040517f08c379a0000000000000000000000000000000000000000000000000000000008152600401610eaf906131ee565b60405180910390fd5b610ec33330846107ab565b60405180604001604052808281526020013373ffffffffffffffffffffffffffffffffffffffff16815250600960008481526020019081526020016000206000820151816000015560208201518160010160006101000a81548173ffffffffffffffffffffffffffffffffffffffff021916908373ffffffffffffffffffffffffffffffffffffffff1602179055509050507f705332a8918666802fc1504f63ff1f002a5f6cedd30d59ad7ae0b5281aeb8dca82333084604051610f8a949392919061320e565b60405180910390a15050565b606060018054610fa590612bc6565b80601f0160208091040260200160405190810160405280929190818152602001828054610fd190612bc6565b801561101e5780601f10610ff35761010080835404028352916020019161101e565b820191906000526020600020905b81548152906001019060200180831161100157829003601f168201915b5050505050905090565b61103a611033611438565b8383611aaa565b5050565b61104f611049611438565b836114f9565b61108e576040517f08c379a000000000000000000000000000000000000000000000000000000000815260040161108590612d8e565b60405180910390fd5b61109a84848484611c17565b50505050565b60606110ab826113ed565b60006006600084815260200190815260200160002080546110cb90612bc6565b80601f01602080910402602001604051908101604052809291908181526020018280546110f790612bc6565b80156111445780601f1061111957610100808354040283529160200191611144565b820191906000526020600020905b81548152906001019060200180831161112757829003601f168201915b505050505090506000611155611c73565b905060008151141561116b5781925050506111ae565b6000825111156111a05780826040516020016111889291906132a2565b604051602081830303815290604052925050506111ae565b6111a984611c8a565b925050505b919050565b6111bd6008611cf2565b60006111c96008611d08565b90506111d53382611d16565b6112238184848080601f016020809104026020016040519081016040528093929190818152602001838380828437600081840152601f19601f82011690508083019250505050505050611d34565b7f705332a8918666802fc1504f63ff1f002a5f6cedd30d59ad7ae0b5281aeb8dca816000338686600060405161125e969594939291906132f3565b60405180910390a1505050565b6000600560008473ffffffffffffffffffffffffffffffffffffffff1673ffffffffffffffffffffffffffffffffffffffff16815260200190815260200160002060008373ffffffffffffffffffffffffffffffffffffffff1673ffffffffffffffffffffffffffffffffffffffff16815260200190815260200160002060009054906101000a900460ff16905092915050565b611307611888565b600073ffffffffffffffffffffffffffffffffffffffff168173ffffffffffffffffffffffffffffffffffffffff161415611377576040517f08c379a000000000000000000000000000000000000000000000000000000000815260040161136e906133c1565b60405180910390fd5b611380816119e4565b50565b60007f01ffc9a7000000000000000000000000000000000000000000000000000000007bffffffffffffffffffffffffffffffffffffffffffffffffffffffff1916827bffffffffffffffffffffffffffffffffffffffffffffffffffffffff1916149050919050565b6113f681611da8565b611435576040517f08c379a000000000000000000000000000000000000000000000000000000000815260040161142c906130ca565b60405180910390fd5b50565b600033905090565b816004600083815260200190815260200160002060006101000a81548173ffffffffffffffffffffffffffffffffffffffff021916908373ffffffffffffffffffffffffffffffffffffffff160217905550808273ffffffffffffffffffffffffffffffffffffffff166114b383610cf8565b73ffffffffffffffffffffffffffffffffffffffff167f8c5be1e5ebec7d5bd14f71427d1e84f3dd0314c0f7b2291e5b200ac8c7c3b92560405160405180910390a45050565b60008061150583610cf8565b90508073ffffffffffffffffffffffffffffffffffffffff168473ffffffffffffffffffffffffffffffffffffffff1614806115475750611546818561126b565b5b8061158557508373ffffffffffffffffffffffffffffffffffffffff1661156d8461064d565b73ffffffffffffffffffffffffffffffffffffffff16145b91505092915050565b8273ffffffffffffffffffffffffffffffffffffffff166115ae82610cf8565b73ffffffffffffffffffffffffffffffffffffffff1614611604576040517f08c379a00000000000000000000000000000000000000000000000000000000081526004016115fb90613453565b60405180910390fd5b600073ffffffffffffffffffffffffffffffffffffffff168273ffffffffffffffffffffffffffffffffffffffff161415611674576040517f08c379a000000000000000000000000000000000000000000000000000000000815260040161166b906134e5565b60405180910390fd5b6116818383836001611de9565b8273ffffffffffffffffffffffffffffffffffffffff166116a182610cf8565b73ffffffffffffffffffffffffffffffffffffffff16146116f7576040517f08c379a00000000000000000000000000000000000000000000000000000000081526004016116ee90613453565b60405180910390fd5b6004600082815260200190815260200160002060006101000a81549073ffffffffffffffffffffffffffffffffffffffff02191690556001600360008573ffffffffffffffffffffffffffffffffffffffff1673ffffffffffffffffffffffffffffffffffffffff168152602001908152602001600020600082825403925050819055506001600360008473ffffffffffffffffffffffffffffffffffffffff1673ffffffffffffffffffffffffffffffffffffffff16815260200190815260200160002060008282540192505081905550816002600083815260200190815260200160002060006101000a81548173ffffffffffffffffffffffffffffffffffffffff021916908373ffffffffffffffffffffffffffffffffffffffff160217905550808273ffffffffffffffffffffffffffffffffffffffff168473ffffffffffffffffffffffffffffffffffffffff167fddf252ad1be2c89b69c2b068fc378daa952ba7f163c4a11628f55a4df523b3ef60405160405180910390a46118838383836001611def565b505050565b611890611438565b73ffffffffffffffffffffffffffffffffffffffff166118ae610e4b565b73ffffffffffffffffffffffffffffffffffffffff1614611904576040517f08c379a00000000000000000000000000000000000000000000000000000000081526004016118fb90613551565b60405180910390fd5b565b6000600960008381526020019081526020016000206000018190555060006009600083815260200190815260200160002060010160006101000a81548173ffffffffffffffffffffffffffffffffffffffff021916908373ffffffffffffffffffffffffffffffffffffffff16021790555050565b6000818361198991906135a0565b905092915050565b6000818361199f9190613629565b905092915050565b60006002600083815260200190815260200160002060009054906101000a900473ffffffffffffffffffffffffffffffffffffffff169050919050565b6000600760009054906101000a900473ffffffffffffffffffffffffffffffffffffffff16905081600760006101000a81548173ffffffffffffffffffffffffffffffffffffffff021916908373ffffffffffffffffffffffffffffffffffffffff1602179055508173ffffffffffffffffffffffffffffffffffffffff168173ffffffffffffffffffffffffffffffffffffffff167f8be0079c531659141344cd1fd0a4f28419497f9722a3daafe3b4186f6b6457e060405160405180910390a35050565b8173ffffffffffffffffffffffffffffffffffffffff168373ffffffffffffffffffffffffffffffffffffffff161415611b19576040517f08c379a0000000000000000000000000000000000000000000000000000000008152600401611b10906136a6565b60405180910390fd5b80600560008573ffffffffffffffffffffffffffffffffffffffff1673ffffffffffffffffffffffffffffffffffffffff16815260200190815260200160002060008473ffffffffffffffffffffffffffffffffffffffff1673ffffffffffffffffffffffffffffffffffffffff16815260200190815260200160002060006101000a81548160ff0219169083151502179055508173ffffffffffffffffffffffffffffffffffffffff168373ffffffffffffffffffffffffffffffffffffffff167f17307eab39ab6107e8899845ad3d59bd9653f200f220920489ca2b5937696c3183604051611c0a919061259b565b60405180910390a3505050565b611c2284848461158e565b611c2e84848484611df5565b611c6d576040517f08c379a0000000000000000000000000000000000000000000000000000000008152600401611c6490613738565b60405180910390fd5b50505050565b606060405180602001604052806000815250905090565b6060611c95826113ed565b6000611c9f611c73565b90506000815111611cbf5760405180602001604052806000815250611cea565b80611cc984611f7d565b604051602001611cda9291906132a2565b6040516020818303038152906040525b915050919050565b6001816000016000828254019250508190555050565b600081600001549050919050565b611d30828260405180602001604052806000815250612055565b5050565b611d3d82611da8565b611d7c576040517f08c379a0000000000000000000000000000000000000000000000000000000008152600401611d73906137ca565b60405180910390fd5b80600660008481526020019081526020016000209080519060200190611da3929190612444565b505050565b60008073ffffffffffffffffffffffffffffffffffffffff16611dca836119a7565b73ffffffffffffffffffffffffffffffffffffffff1614159050919050565b50505050565b50505050565b6000611e168473ffffffffffffffffffffffffffffffffffffffff166120b0565b15611f70578373ffffffffffffffffffffffffffffffffffffffff1663150b7a02611e3f611438565b8786866040518563ffffffff1660e01b8152600401611e61949392919061383f565b6020604051808303816000875af1925050508015611e9d57506040513d601f19601f82011682018060405250810190611e9a91906138a0565b60015b611f20573d8060008114611ecd576040519150601f19603f3d011682016040523d82523d6000602084013e611ed2565b606091505b50600081511415611f18576040517f08c379a0000000000000000000000000000000000000000000000000000000008152600401611f0f90613738565b60405180910390fd5b805181602001fd5b63150b7a0260e01b7bffffffffffffffffffffffffffffffffffffffffffffffffffffffff1916817bffffffffffffffffffffffffffffffffffffffffffffffffffffffff191614915050611f75565b600190505b949350505050565b606060006001611f8c846120d3565b01905060008167ffffffffffffffff811115611fab57611faa6128fc565b5b6040519080825280601f01601f191660200182016040528015611fdd5781602001600182028036833780820191505090505b509050600082602001820190505b60011561204a578080600190039150507f3031323334353637383961626364656600000000000000000000000000000000600a86061a8153600a8581612034576120336135fa565b5b04945060008514156120455761204a565b611feb565b819350505050919050565b61205f8383612226565b61206c6000848484611df5565b6120ab576040517f08c379a00000000000000000000000000000000000000000000000000000000081526004016120a290613738565b60405180910390fd5b505050565b6000808273ffffffffffffffffffffffffffffffffffffffff163b119050919050565b600080600090507a184f03e93ff9f4daa797ed6e38ed64bf6a1f0100000000000000008310612131577a184f03e93ff9f4daa797ed6e38ed64bf6a1f0100000000000000008381612127576121266135fa565b5b0492506040810190505b6d04ee2d6d415b85acef8100000000831061216e576d04ee2d6d415b85acef81000000008381612164576121636135fa565b5b0492506020810190505b662386f26fc10000831061219d57662386f26fc100008381612193576121926135fa565b5b0492506010810190505b6305f5e10083106121c6576305f5e10083816121bc576121bb6135fa565b5b0492506008810190505b61271083106121eb5761271083816121e1576121e06135fa565b5b0492506004810190505b6064831061220e5760648381612204576122036135fa565b5b0492506002810190505b600a831061221d576001810190505b80915050919050565b600073ffffffffffffffffffffffffffffffffffffffff168273ffffffffffffffffffffffffffffffffffffffff161415612296576040517f08c379a000000000000000000000000000000000000000000000000000000000815260040161228d90613919565b60405180910390fd5b61229f81611da8565b156122df576040517f08c379a00000000000000000000000000000000000000000000000000000000081526004016122d690613985565b60405180910390fd5b6122ed600083836001611de9565b6122f681611da8565b15612336576040517f08c379a000000000000000000000000000000000000000000000000000000000815260040161232d90613985565b60405180910390fd5b6001600360008473ffffffffffffffffffffffffffffffffffffffff1673ffffffffffffffffffffffffffffffffffffffff16815260200190815260200160002060008282540192505081905550816002600083815260200190815260200160002060006101000a81548173ffffffffffffffffffffffffffffffffffffffff021916908373ffffffffffffffffffffffffffffffffffffffff160217905550808273ffffffffffffffffffffffffffffffffffffffff16600073ffffffffffffffffffffffffffffffffffffffff167fddf252ad1be2c89b69c2b068fc378daa952ba7f163c4a11628f55a4df523b3ef60405160405180910390a4612440600083836001611def565b5050565b82805461245090612bc6565b90600052602060002090601f01602090048101928261247257600085556124b9565b82601f1061248b57805160ff19168380011785556124b9565b828001600101855582156124b9579182015b828111156124b857825182559160200191906001019061249d565b5b5090506124c691906124ca565b5090565b5b808211156124e35760008160009055506001016124cb565b5090565b6000604051905090565b600080fd5b600080fd5b60007fffffffff0000000000000000000000000000000000000000000000000000000082169050919050565b612530816124fb565b811461253b57600080fd5b50565b60008135905061254d81612527565b92915050565b600060208284031215612569576125686124f1565b5b60006125778482850161253e565b91505092915050565b60008115159050919050565b61259581612580565b82525050565b60006020820190506125b0600083018461258c565b92915050565b600081519050919050565b600082825260208201905092915050565b60005b838110156125f05780820151818401526020810190506125d5565b838111156125ff576000848401525b50505050565b6000601f19601f8301169050919050565b6000612621826125b6565b61262b81856125c1565b935061263b8185602086016125d2565b61264481612605565b840191505092915050565b600060208201905081810360008301526126698184612616565b905092915050565b6000819050919050565b61268481612671565b811461268f57600080fd5b50565b6000813590506126a18161267b565b92915050565b6000602082840312156126bd576126bc6124f1565b5b60006126cb84828501612692565b91505092915050565b600073ffffffffffffffffffffffffffffffffffffffff82169050919050565b60006126ff826126d4565b9050919050565b61270f816126f4565b82525050565b600060208201905061272a6000830184612706565b92915050565b612739816126f4565b811461274457600080fd5b50565b60008135905061275681612730565b92915050565b60008060408385031215612773576127726124f1565b5b600061278185828601612747565b925050602061279285828601612692565b9150509250929050565b6000806000606084860312156127b5576127b46124f1565b5b60006127c386828701612747565b93505060206127d486828701612747565b92505060406127e586828701612692565b9150509250925092565b600060208284031215612805576128046124f1565b5b600061281384828501612747565b91505092915050565b61282581612671565b82525050565b6000602082019050612840600083018461281c565b92915050565b6000806040838503121561285d5761285c6124f1565b5b600061286b85828601612692565b925050602061287c85828601612692565b9150509250929050565b61288f81612580565b811461289a57600080fd5b50565b6000813590506128ac81612886565b92915050565b600080604083850312156128c9576128c86124f1565b5b60006128d785828601612747565b92505060206128e88582860161289d565b9150509250929050565b600080fd5b600080fd5b7f4e487b7100000000000000000000000000000000000000000000000000000000600052604160045260246000fd5b61293482612605565b810181811067ffffffffffffffff82111715612953576129526128fc565b5b80604052505050565b60006129666124e7565b9050612972828261292b565b919050565b600067ffffffffffffffff821115612992576129916128fc565b5b61299b82612605565b9050602081019050919050565b82818337600083830152505050565b60006129ca6129c584612977565b61295c565b9050828152602081018484840111156129e6576129e56128f7565b5b6129f18482856129a8565b509392505050565b600082601f830112612a0e57612a0d6128f2565b5b8135612a1e8482602086016129b7565b91505092915050565b60008060008060808587031215612a4157612a406124f1565b5b6000612a4f87828801612747565b9450506020612a6087828801612747565b9350506040612a7187828801612692565b925050606085013567ffffffffffffffff811115612a9257612a916124f6565b5b612a9e878288016129f9565b91505092959194509250565b600080fd5b600080fd5b60008083601f840112612aca57612ac96128f2565b5b8235905067ffffffffffffffff811115612ae757612ae6612aaa565b5b602083019150836001820283011115612b0357612b02612aaf565b5b9250929050565b60008060208385031215612b2157612b206124f1565b5b600083013567ffffffffffffffff811115612b3f57612b3e6124f6565b5b612b4b85828601612ab4565b92509250509250929050565b60008060408385031215612b6e57612b6d6124f1565b5b6000612b7c85828601612747565b9250506020612b8d85828601612747565b9150509250929050565b7f4e487b7100000000000000000000000000000000000000000000000000000000600052602260045260246000fd5b60006002820490506001821680612bde57607f821691505b60208210811415612bf257612bf1612b97565b5b50919050565b7f4552433732313a20617070726f76616c20746f2063757272656e74206f776e6560008201527f7200000000000000000000000000000000000000000000000000000000000000602082015250565b6000612c546021836125c1565b9150612c5f82612bf8565b604082019050919050565b60006020820190508181036000830152612c8381612c47565b9050919050565b7f4552433732313a20617070726f76652063616c6c6572206973206e6f7420746f60008201527f6b656e206f776e6572206f7220617070726f76656420666f7220616c6c000000602082015250565b6000612ce6603d836125c1565b9150612cf182612c8a565b604082019050919050565b60006020820190508181036000830152612d1581612cd9565b9050919050565b7f4552433732313a2063616c6c6572206973206e6f7420746f6b656e206f776e6560008201527f72206f7220617070726f76656400000000000000000000000000000000000000602082015250565b6000612d78602d836125c1565b9150612d8382612d1c565b604082019050919050565b60006020820190508181036000830152612da781612d6b565b9050919050565b7f4e46544d61726b65743a2062616c616e6365206973207a65726f000000000000600082015250565b6000612de4601a836125c1565b9150612def82612dae565b602082019050919050565b60006020820190508181036000830152612e1381612dd7565b9050919050565b7f4e46544d61726b65743a206e6674206e6f74206c697374656420666f7220736160008201527f6c65000000000000000000000000000000000000000000000000000000000000602082015250565b6000612e766022836125c1565b9150612e8182612e1a565b604082019050919050565b60006020820190508181036000830152612ea581612e69565b9050919050565b7f4e46544d61726b65743a20796f75277265206e6f74207468652073656c6c6572600082015250565b6000612ee26020836125c1565b9150612eed82612eac565b602082019050919050565b60006020820190508181036000830152612f1181612ed5565b9050919050565b6000606082019050612f2d6000830186612706565b612f3a6020830185612706565b612f47604083018461281c565b949350505050565b50565b6000612f5f6000836125c1565b9150612f6a82612f4f565b600082019050919050565b6000819050919050565b6000819050919050565b6000612fa4612f9f612f9a84612f75565b612f7f565b612671565b9050919050565b612fb481612f89565b82525050565b600060a082019050612fcf600083018761281c565b612fdc6020830186612706565b612fe96040830185612706565b8181036060830152612ffa81612f52565b90506130096080830184612fab565b95945050505050565b7f4e46544d61726b65743a20696e636f7272656374207072696365000000000000600082015250565b6000613048601a836125c1565b915061305382613012565b602082019050919050565b600060208201905081810360008301526130778161303b565b9050919050565b7f4552433732313a20696e76616c696420746f6b656e2049440000000000000000600082015250565b60006130b46018836125c1565b91506130bf8261307e565b602082019050919050565b600060208201905081810360008301526130e3816130a7565b9050919050565b7f4552433732313a2061646472657373207a65726f206973206e6f74206120766160008201527f6c6964206f776e65720000000000000000000000000000000000000000000000602082015250565b60006131466029836125c1565b9150613151826130ea565b604082019050919050565b6000602082019050818103600083015261317581613139565b9050919050565b7f4e46544d61726b65743a207072696365206d757374206265206772656174657260008201527f207468616e203000000000000000000000000000000000000000000000000000602082015250565b60006131d86027836125c1565b91506131e38261317c565b604082019050919050565b60006020820190508181036000830152613207816131cb565b9050919050565b600060a082019050613223600083018761281c565b6132306020830186612706565b61323d6040830185612706565b818103606083015261324e81612f52565b905061325d608083018461281c565b95945050505050565b600081905092915050565b600061327c826125b6565b6132868185613266565b93506132968185602086016125d2565b80840191505092915050565b60006132ae8285613271565b91506132ba8284613271565b91508190509392505050565b60006132d283856125c1565b93506132df8385846129a8565b6132e883612605565b840190509392505050565b600060a082019050613308600083018961281c565b6133156020830188612706565b6133226040830187612706565b81810360608301526133358185876132c6565b90506133446080830184612fab565b979650505050505050565b7f4f776e61626c653a206e6577206f776e657220697320746865207a65726f206160008201527f6464726573730000000000000000000000000000000000000000000000000000602082015250565b60006133ab6026836125c1565b91506133b68261334f565b604082019050919050565b600060208201905081810360008301526133da8161339e565b9050919050565b7f4552433732313a207472616e736665722066726f6d20696e636f72726563742060008201527f6f776e6572000000000000000000000000000000000000000000000000000000602082015250565b600061343d6025836125c1565b9150613448826133e1565b604082019050919050565b6000602082019050818103600083015261346c81613430565b9050919050565b7f4552433732313a207472616e7366657220746f20746865207a65726f2061646460008201527f7265737300000000000000000000000000000000000000000000000000000000602082015250565b60006134cf6024836125c1565b91506134da82613473565b604082019050919050565b600060208201905081810360008301526134fe816134c2565b9050919050565b7f4f776e61626c653a2063616c6c6572206973206e6f7420746865206f776e6572600082015250565b600061353b6020836125c1565b915061354682613505565b602082019050919050565b6000602082019050818103600083015261356a8161352e565b9050919050565b7f4e487b7100000000000000000000000000000000000000000000000000000000600052601160045260246000fd5b60006135ab82612671565b91506135b683612671565b9250817fffffffffffffffffffffffffffffffffffffffffffffffffffffffffffffffff04831182151516156135ef576135ee613571565b5b828202905092915050565b7f4e487b7100000000000000000000000000000000000000000000000000000000600052601260045260246000fd5b600061363482612671565b915061363f83612671565b92508261364f5761364e6135fa565b5b828204905092915050565b7f4552433732313a20617070726f766520746f2063616c6c657200000000000000600082015250565b60006136906019836125c1565b915061369b8261365a565b602082019050919050565b600060208201905081810360008301526136bf81613683565b9050919050565b7f4552433732313a207472616e7366657220746f206e6f6e20455243373231526560008201527f63656976657220696d706c656d656e7465720000000000000000000000000000602082015250565b60006137226032836125c1565b915061372d826136c6565b604082019050919050565b6000602082019050818103600083015261375181613715565b9050919050565b7f45524337323155524953746f726167653a2055524920736574206f66206e6f6e60008201527f6578697374656e7420746f6b656e000000000000000000000000000000000000602082015250565b60006137b4602e836125c1565b91506137bf82613758565b604082019050919050565b600060208201905081810360008301526137e3816137a7565b9050919050565b600081519050919050565b600082825260208201905092915050565b6000613811826137ea565b61381b81856137f5565b935061382b8185602086016125d2565b61383481612605565b840191505092915050565b60006080820190506138546000830187612706565b6138616020830186612706565b61386e604083018561281c565b81810360608301526138808184613806565b905095945050505050565b60008151905061389a81612527565b92915050565b6000602082840312156138b6576138b56124f1565b5b60006138c48482850161388b565b91505092915050565b7f4552433732313a206d696e7420746f20746865207a65726f2061646472657373600082015250565b60006139036020836125c1565b915061390e826138cd565b602082019050919050565b60006020820190508181036000830152613932816138f6565b9050919050565b7f4552433732313a20746f6b656e20616c7265616479206d696e74656400000000600082015250565b600061396f601c836125c1565b915061397a82613939565b602082019050919050565b6000602082019050818103600083015261399e81613962565b905091905056fea2646970667358221220eb233d85c6ed41cdc2f6220f61afbf2e9331681377506ae6fe948dd28354ba1e64736f6c634300080b0033",
  "linkReferences": {},
  "deployedLinkReferences": {}
}